{
  "_format": "hh3-artifact-1",
  "contractName": "VaultaraInheritance",
  "sourceName": "contracts/VaultaraInheritance.sol",
  "abi": [
    {
      "inputs": [],
      "stateMutability": "nonpayable",
      "type": "constructor"
    },
    {
      "inputs": [],
      "name": "BeneficiaryAlreadyExists",
      "type": "error"
    },
    {
      "inputs": [],
      "name": "BeneficiaryNotFound",
      "type": "error"
    },
    {
      "inputs": [],
      "name": "HeartbeatStillValid",
      "type": "error"
    },
    {
      "inputs": [],
      "name": "InheritanceAlreadyTriggered",
      "type": "error"
    },
    {
      "inputs": [],
      "name": "InvalidBeneficiary",
      "type": "error"
    },
    {
      "inputs": [],
      "name": "InvalidHeartbeatInterval",
      "type": "error"
    },
    {
      "inputs": [],
      "name": "InvalidSharePercentage",
      "type": "error"
    },
    {
      "inputs": [],
      "name": "NoBeneficiaries",
      "type": "error"
    },
    {
      "inputs": [],
      "name": "NoFundsToTransfer",
      "type": "error"
    },
    {
      "inputs": [
        {
          "internalType": "address",
          "name": "owner",
          "type": "address"
        }
      ],
      "name": "OwnableInvalidOwner",
      "type": "error"
    },
    {
      "inputs": [
        {
          "internalType": "address",
          "name": "account",
          "type": "address"
        }
      ],
      "name": "OwnableUnauthorizedAccount",
      "type": "error"
    },
    {
      "inputs": [],
      "name": "ReentrancyGuardReentrantCall",
      "type": "error"
    },
    {
      "inputs": [],
      "name": "TotalShareMustBe100Percent",
      "type": "error"
    },
    {
      "inputs": [],
      "name": "TransferFailed",
      "type": "error"
    },
    {
      "inputs": [],
      "name": "VaultAlreadyActive",
      "type": "error"
    },
    {
      "inputs": [],
      "name": "VaultNotActive",
      "type": "error"
    },
    {
      "anonymous": false,
      "inputs": [
        {
          "indexed": true,
          "internalType": "address",
          "name": "beneficiary",
          "type": "address"
        },
        {
          "indexed": false,
          "internalType": "uint256",
          "name": "sharePercentage",
          "type": "uint256"
        }
      ],
      "name": "BeneficiaryAdded",
      "type": "event"
    },
    {
      "anonymous": false,
      "inputs": [
        {
          "indexed": true,
          "internalType": "address",
          "name": "beneficiary",
          "type": "address"
        }
      ],
      "name": "BeneficiaryRemoved",
      "type": "event"
    },
    {
      "anonymous": false,
      "inputs": [
        {
          "indexed": true,
          "internalType": "address",
          "name": "beneficiary",
          "type": "address"
        },
        {
          "indexed": false,
          "internalType": "uint256",
          "name": "newSharePercentage",
          "type": "uint256"
        }
      ],
      "name": "BeneficiaryUpdated",
      "type": "event"
    },
    {
      "anonymous": false,
      "inputs": [
        {
          "indexed": true,
          "internalType": "address",
          "name": "beneficiary",
          "type": "address"
        },
        {
          "indexed": false,
          "internalType": "uint256",
          "name": "amount",
          "type": "uint256"
        }
      ],
      "name": "FundsTransferred",
      "type": "event"
    },
    {
      "anonymous": false,
      "inputs": [
        {
          "indexed": false,
          "internalType": "uint256",
          "name": "newInterval",
          "type": "uint256"
        }
      ],
      "name": "HeartbeatIntervalUpdated",
      "type": "event"
    },
    {
      "anonymous": false,
      "inputs": [
        {
          "indexed": true,
          "internalType": "address",
          "name": "owner",
          "type": "address"
        },
        {
          "indexed": false,
          "internalType": "uint256",
          "name": "timestamp",
          "type": "uint256"
        }
      ],
      "name": "HeartbeatSent",
      "type": "event"
    },
    {
      "anonymous": false,
      "inputs": [
        {
          "indexed": false,
          "internalType": "uint256",
          "name": "timestamp",
          "type": "uint256"
        }
      ],
      "name": "InheritanceTriggered",
      "type": "event"
    },
    {
      "anonymous": false,
      "inputs": [
        {
          "indexed": true,
          "internalType": "address",
          "name": "previousOwner",
          "type": "address"
        },
        {
          "indexed": true,
          "internalType": "address",
          "name": "newOwner",
          "type": "address"
        }
      ],
      "name": "OwnershipTransferred",
      "type": "event"
    },
    {
      "anonymous": false,
      "inputs": [
        {
          "indexed": true,
          "internalType": "address",
          "name": "owner",
          "type": "address"
        }
      ],
      "name": "VaultDeactivated",
      "type": "event"
    },
    {
      "anonymous": false,
      "inputs": [
        {
          "indexed": true,
          "internalType": "address",
          "name": "owner",
          "type": "address"
        },
        {
          "indexed": false,
          "internalType": "uint256",
          "name": "heartbeatInterval",
          "type": "uint256"
        }
      ],
      "name": "VaultInitialized",
      "type": "event"
    },
    {
      "stateMutability": "payable",
      "type": "fallback"
    },
    {
      "inputs": [
        {
          "internalType": "address",
          "name": "_beneficiary",
          "type": "address"
        },
        {
          "internalType": "uint256",
          "name": "_sharePercentage",
          "type": "uint256"
        },
        {
          "internalType": "string",
          "name": "_encryptedMetadata",
          "type": "string"
        }
      ],
      "name": "addBeneficiary",
      "outputs": [],
      "stateMutability": "nonpayable",
      "type": "function"
    },
    {
      "inputs": [
        {
          "internalType": "uint256",
          "name": "",
          "type": "uint256"
        }
      ],
      "name": "beneficiaries",
      "outputs": [
        {
          "internalType": "address",
          "name": "beneficiaryAddress",
          "type": "address"
        },
        {
          "internalType": "uint256",
          "name": "sharePercentage",
          "type": "uint256"
        },
        {
          "internalType": "string",
          "name": "encryptedMetadata",
          "type": "string"
        },
        {
          "internalType": "bool",
          "name": "isActive",
          "type": "bool"
        }
      ],
      "stateMutability": "view",
      "type": "function"
    },
    {
      "inputs": [],
      "name": "deactivateVault",
      "outputs": [],
      "stateMutability": "nonpayable",
      "type": "function"
    },
    {
      "inputs": [],
      "name": "getActiveBeneficiaries",
      "outputs": [
        {
          "components": [
            {
              "internalType": "address",
              "name": "beneficiaryAddress",
              "type": "address"
            },
            {
              "internalType": "uint256",
              "name": "sharePercentage",
              "type": "uint256"
            },
            {
              "internalType": "string",
              "name": "encryptedMetadata",
              "type": "string"
            },
            {
              "internalType": "bool",
              "name": "isActive",
              "type": "bool"
            }
          ],
          "internalType": "struct VaultaraInheritance.Beneficiary[]",
          "name": "",
          "type": "tuple[]"
        }
      ],
      "stateMutability": "view",
      "type": "function"
    },
    {
      "inputs": [],
      "name": "getBeneficiaryCount",
      "outputs": [
        {
          "internalType": "uint256",
          "name": "",
          "type": "uint256"
        }
      ],
      "stateMutability": "view",
      "type": "function"
    },
    {
      "inputs": [],
      "name": "getTimeUntilExpiry",
      "outputs": [
        {
          "internalType": "uint256",
          "name": "",
          "type": "uint256"
        }
      ],
      "stateMutability": "view",
      "type": "function"
    },
    {
      "inputs": [],
      "name": "heartbeatInterval",
      "outputs": [
        {
          "internalType": "uint256",
          "name": "",
          "type": "uint256"
        }
      ],
      "stateMutability": "view",
      "type": "function"
    },
    {
      "inputs": [],
      "name": "inheritanceTriggered",
      "outputs": [
        {
          "internalType": "bool",
          "name": "",
          "type": "bool"
        }
      ],
      "stateMutability": "view",
      "type": "function"
    },
    {
      "inputs": [
        {
          "internalType": "uint256",
          "name": "_heartbeatInterval",
          "type": "uint256"
        }
      ],
      "name": "initializeVault",
      "outputs": [],
      "stateMutability": "nonpayable",
      "type": "function"
    },
    {
      "inputs": [],
      "name": "isActive",
      "outputs": [
        {
          "internalType": "bool",
          "name": "",
          "type": "bool"
        }
      ],
      "stateMutability": "view",
      "type": "function"
    },
    {
      "inputs": [
        {
          "internalType": "address",
          "name": "",
          "type": "address"
        }
      ],
      "name": "isBeneficiary",
      "outputs": [
        {
          "internalType": "bool",
          "name": "",
          "type": "bool"
        }
      ],
      "stateMutability": "view",
      "type": "function"
    },
    {
      "inputs": [],
      "name": "isHeartbeatExpired",
      "outputs": [
        {
          "internalType": "bool",
          "name": "",
          "type": "bool"
        }
      ],
      "stateMutability": "view",
      "type": "function"
    },
    {
      "inputs": [],
      "name": "lastHeartbeat",
      "outputs": [
        {
          "internalType": "uint256",
          "name": "",
          "type": "uint256"
        }
      ],
      "stateMutability": "view",
      "type": "function"
    },
    {
      "inputs": [],
      "name": "owner",
      "outputs": [
        {
          "internalType": "address",
          "name": "",
          "type": "address"
        }
      ],
      "stateMutability": "view",
      "type": "function"
    },
    {
      "inputs": [
        {
          "internalType": "address",
          "name": "_beneficiary",
          "type": "address"
        }
      ],
      "name": "removeBeneficiary",
      "outputs": [],
      "stateMutability": "nonpayable",
      "type": "function"
    },
    {
      "inputs": [],
      "name": "renounceOwnership",
      "outputs": [],
      "stateMutability": "nonpayable",
      "type": "function"
    },
    {
      "inputs": [],
      "name": "sendHeartbeat",
      "outputs": [],
      "stateMutability": "nonpayable",
      "type": "function"
    },
    {
      "inputs": [],
      "name": "totalSharePercentage",
      "outputs": [
        {
          "internalType": "uint256",
          "name": "",
          "type": "uint256"
        }
      ],
      "stateMutability": "view",
      "type": "function"
    },
    {
      "inputs": [
        {
          "internalType": "address",
          "name": "newOwner",
          "type": "address"
        }
      ],
      "name": "transferOwnership",
      "outputs": [],
      "stateMutability": "nonpayable",
      "type": "function"
    },
    {
      "inputs": [],
      "name": "triggerInheritance",
      "outputs": [],
      "stateMutability": "nonpayable",
      "type": "function"
    },
    {
      "inputs": [
        {
          "internalType": "address",
          "name": "_beneficiary",
          "type": "address"
        },
        {
          "internalType": "uint256",
          "name": "_newSharePercentage",
          "type": "uint256"
        }
      ],
      "name": "updateBeneficiary",
      "outputs": [],
      "stateMutability": "nonpayable",
      "type": "function"
    },
    {
      "inputs": [
        {
          "internalType": "uint256",
          "name": "_newInterval",
          "type": "uint256"
        }
      ],
      "name": "updateHeartbeatInterval",
      "outputs": [],
      "stateMutability": "nonpayable",
      "type": "function"
    },
    {
      "inputs": [],
      "name": "withdrawFunds",
      "outputs": [],
      "stateMutability": "nonpayable",
      "type": "function"
    },
    {
      "stateMutability": "payable",
      "type": "receive"
    }
  ],
  "bytecode": "0x6080604052348015600e575f5ffd5b5060015f553380603757604051631e4fbdf760e01b81525f600482015260240160405180910390fd5b603e816059565b506004805460ff1990811690915560088054909116905560aa565b600180546001600160a01b038381166001600160a01b0319831681179093556040519116919082907f8be0079c531659141344cd1fd0a4f28419497f9722a3daafe3b4186f6b6457e0905f90a35050565b6118f0806100b75f395ff3fe608060405260043610610136575f3560e01c8063935a619e116100af578063b96624051161006b578063b966240514610312578063cbb9649e1461032b578063e50a9b201461034a578063efeb5e581461035e578063f2fde38b1461038d578063fcb9b505146103ac57005b8063935a619e1461025d5780639a6e7fd11461027c5780639d19b22614610290578063b1750bd9146102be578063b2a1d4c4146102df578063b779b518146102f357005b806359633a1c116100fe57806359633a1c146101c557806368fcb650146101e457806369c1a712146101f8578063715018a61461020d57806371b7b24e146102215780638da5cb5b1461023657005b806322f3e2d41461013857806324600fc31461016657806331ebf4011461017a57806334f167a91461018e578063561a4fac146101a2575b005b348015610143575f5ffd5b506004546101519060ff1681565b60405190151581526020015b60405180910390f35b348015610171575f5ffd5b506101366103cb565b348015610185575f5ffd5b506101366104af565b348015610199575f5ffd5b50610136610753565b3480156101ad575f5ffd5b506101b760025481565b60405190815260200161015d565b3480156101d0575f5ffd5b506101366101df3660046114e4565b6107df565b3480156101ef575f5ffd5b506101366109a6565b348015610203575f5ffd5b506101b760035481565b348015610218575f5ffd5b50610136610a2b565b34801561022c575f5ffd5b506101b760075481565b348015610241575f5ffd5b506001546040516001600160a01b03909116815260200161015d565b348015610268575f5ffd5b50610136610277366004611504565b610a3c565b348015610287575f5ffd5b506005546101b7565b34801561029b575f5ffd5b506101516102aa3660046114e4565b60066020525f908152604090205460ff1681565b3480156102c9575f5ffd5b506102d2610ca8565b60405161015d91906115b5565b3480156102ea575f5ffd5b50610151610ef9565b3480156102fe575f5ffd5b5061013661030d36600461164e565b610f21565b34801561031d575f5ffd5b506008546101519060ff1681565b348015610336575f5ffd5b5061013661034536600461164e565b610fdd565b348015610355575f5ffd5b506101b76110c5565b348015610369575f5ffd5b5061037d61037836600461164e565b611106565b60405161015d9493929190611665565b348015610398575f5ffd5b506101366103a73660046114e4565b6111d4565b3480156103b7575f5ffd5b506101366103c636600461169e565b611213565b6103d3611423565b6103db611450565b60045460ff16156103ff57604051630440ee7560e21b815260040160405180910390fd5b475f81900361042157604051630d1df6ed60e41b815260040160405180910390fd5b5f6104346001546001600160a01b031690565b6001600160a01b0316826040515f6040518083038185875af1925050503d805f811461047b576040519150601f19603f3d011682016040523d82523d5f602084013e610480565b606091505b50509050806104a2576040516312171d8360e31b815260040160405180910390fd5b50506104ad60015f55565b565b6104b7611450565b60045460ff166104da57604051630440ee7560e21b815260040160405180910390fd5b60085460ff16156104fe576040516361240f1b60e01b815260040160405180910390fd5b610506610ef9565b61052357604051637f4acc4f60e11b815260040160405180910390fd5b6005545f0361054557604051630a6e387f60e31b815260040160405180910390fd5b60075461271014610569576040516365ba7d9b60e01b815260040160405180910390fd5b60088054600160ff19918216179091556004805490911690556040514281527f601327d41cbc1c6269b581198b0dac95a3941e74f6f160299c360335163d1d019060200160405180910390a1475f8190036105d757604051630d1df6ed60e41b815260040160405180910390fd5b5f5b6005548110156104a257600581815481106105f6576105f66116c6565b5f91825260209091206003600490920201015460ff161561074b575f61271060058381548110610628576106286116c6565b905f5260205f209060040201600101548461064391906116ee565b61064d919061170b565b90508015610749575f60058381548110610669576106696116c6565b5f91825260208220600490910201546040516001600160a01b039091169184919081818185875af1925050503d805f81146106bf576040519150601f19603f3d011682016040523d82523d5f602084013e6106c4565b606091505b50509050806106e6576040516312171d8360e31b815260040160405180910390fd5b600583815481106106f9576106f96116c6565b5f918252602091829020600490910201546040518481526001600160a01b03909116917f8c9a4f13b67cb64d7c6aa1ae0c9bf07694af521a28b93e7060020810ab4bc59f910160405180910390a2505b505b6001016105d9565b61075b611423565b60045460ff1661077e57604051630440ee7560e21b815260040160405180910390fd5b60085460ff16156107a2576040516361240f1b60e01b815260040160405180910390fd5b42600381905560405190815233907f878229cab17522b0aa9fe67ef166ba37857b7fdb46cd8748179a9d9a7373727f9060200160405180910390a2565b6107e7611423565b60045460ff1661080a57604051630440ee7560e21b815260040160405180910390fd5b60085460ff161561082e576040516361240f1b60e01b815260040160405180910390fd5b6001600160a01b0381165f9081526006602052604090205460ff166108665760405163694f351f60e01b815260040160405180910390fd5b5f5b6005548110156109a157816001600160a01b03166005828154811061088f5761088f6116c6565b5f9182526020909120600490910201546001600160a01b03161480156108da5750600581815481106108c3576108c36116c6565b5f91825260209091206003600490920201015460ff165b1561099957600581815481106108f2576108f26116c6565b905f5260205f2090600402016001015460075f828254610912919061172a565b925050819055505f6005828154811061092d5761092d6116c6565b5f9182526020808320600360049093020191909101805493151560ff199485161790556001600160a01b03851680835260069091526040808320805490941690935591517f72977dad29432f655f11c2f0e72ef5124bb9ade7a512fb7a43a9f504df2234289190a25050565b600101610868565b505b50565b6109ae611423565b60045460ff166109d157604051630440ee7560e21b815260040160405180910390fd5b60085460ff16156109f5576040516361240f1b60e01b815260040160405180910390fd5b6004805460ff1916905560405133907fc32abc56a37a64f3181443336cf649554cf073704b4d5cb28cc175925e7e80fe905f90a2565b610a33611423565b6104ad5f611478565b610a44611423565b60045460ff16610a6757604051630440ee7560e21b815260040160405180910390fd5b60085460ff1615610a8b576040516361240f1b60e01b815260040160405180910390fd5b6001600160a01b0384161580610aae57506001546001600160a01b038581169116145b15610acc57604051631559b7d760e21b815260040160405180910390fd5b6001600160a01b0384165f9081526006602052604090205460ff1615610b0557604051635e6379d760e01b815260040160405180910390fd5b821580610b13575061271083115b15610b31576040516359b3d7b760e01b815260040160405180910390fd5b60056040518060800160405280866001600160a01b0316815260200185815260200184848080601f0160208091040260200160405190810160405280939291908181526020018383808284375f9201829052509385525050600160209384018190528554808201875595835291839020845160049096020180546001600160a01b0319166001600160a01b0390961695909517855550908201519083015560408101519091906002820190610be690826117d4565b50606091909101516003909101805491151560ff199283161790556001600160a01b0385165f908152600660205260408120805490921660011790915560078054859290610c3590849061188f565b90915550506007546127101015610c5f576040516365ba7d9b60e01b815260040160405180910390fd5b836001600160a01b03167fe6b83177f11971ba30369bb38b914ffba97d5969a3c857b286fa8fdbb150b3ba84604051610c9a91815260200190565b60405180910390a250505050565b60605f805b600554811015610cfb5760058181548110610cca57610cca6116c6565b5f91825260209091206003600490920201015460ff1615610cf35781610cef816118a2565b9250505b600101610cad565b505f8167ffffffffffffffff811115610d1657610d1661173d565b604051908082528060200260200182016040528015610d7a57816020015b610d6760405180608001604052805f6001600160a01b031681526020015f8152602001606081526020015f151581525090565b815260200190600190039081610d345790505b5090505f805b600554811015610ef05760058181548110610d9d57610d9d6116c6565b5f91825260209091206003600490920201015460ff1615610ee85760058181548110610dcb57610dcb6116c6565b905f5260205f2090600402016040518060800160405290815f82015f9054906101000a90046001600160a01b03166001600160a01b03166001600160a01b0316815260200160018201548152602001600282018054610e2990611751565b80601f0160208091040260200160405190810160405280929190818152602001828054610e5590611751565b8015610ea05780601f10610e7757610100808354040283529160200191610ea0565b820191905f5260205f20905b815481529060010190602001808311610e8357829003601f168201915b50505091835250506003919091015460ff1615156020909101528351849084908110610ece57610ece6116c6565b60200260200101819052508180610ee4906118a2565b9250505b600101610d80565b50909392505050565b6004545f9060ff16610f0a57505f90565b600254600354610f1a919061188f565b4211905090565b610f29611423565b60045460ff16610f4c57604051630440ee7560e21b815260040160405180910390fd5b60085460ff1615610f70576040516361240f1b60e01b815260040160405180910390fd5b62015180811080610f8457506301e1338081115b15610fa25760405163ccca750560e01b815260040160405180910390fd5b60028190556040518181527f580d95df4fc319030cf896df66e181c6d668adba530cb381f717249385f69a239060200160405180910390a150565b610fe5611423565b60045460ff161561100957604051637d60ba3560e11b815260040160405180910390fd5b6201518081108061101d57506301e1338081115b1561103b5760405163ccca750560e01b815260040160405180910390fd5b6002819055426003556004805460ff1916600117905560405133907f28a9a0b9b1cdcc9ea33cd1062b1e6039c1d513351607d25fd22d3d3f7aaa2745906110859084815260200190565b60405180910390a260405142815233907f878229cab17522b0aa9fe67ef166ba37857b7fdb46cd8748179a9d9a7373727f9060200160405180910390a250565b6004545f9060ff1615806110dc57506110dc610ef9565b156110e657505f90565b426002546003546110f7919061188f565b611101919061172a565b905090565b60058181548110611115575f80fd5b5f9182526020909120600490910201805460018201546002830180546001600160a01b03909316945090929161114a90611751565b80601f016020809104026020016040519081016040528092919081815260200182805461117690611751565b80156111c15780601f10611198576101008083540402835291602001916111c1565b820191905f5260205f20905b8154815290600101906020018083116111a457829003601f168201915b5050506003909301549192505060ff1684565b6111dc611423565b6001600160a01b03811661120a57604051631e4fbdf760e01b81525f60048201526024015b60405180910390fd5b6109a381611478565b61121b611423565b60045460ff1661123e57604051630440ee7560e21b815260040160405180910390fd5b60085460ff1615611262576040516361240f1b60e01b815260040160405180910390fd5b6001600160a01b0382165f9081526006602052604090205460ff1661129a5760405163694f351f60e01b815260040160405180910390fd5b8015806112a8575061271081115b156112c6576040516359b3d7b760e01b815260040160405180910390fd5b5f5b60055481101561141e57826001600160a01b0316600582815481106112ef576112ef6116c6565b5f9182526020909120600490910201546001600160a01b031614801561133a575060058181548110611323576113236116c6565b5f91825260209091206003600490920201015460ff165b15611416575f60058281548110611353576113536116c6565b905f5260205f2090600402016001015490508260058381548110611379576113796116c6565b905f5260205f20906004020160010181905550828160075461139b919061172a565b6113a5919061188f565b600781905561271010156113cc576040516365ba7d9b60e01b815260040160405180910390fd5b836001600160a01b03167f73d60fa978f046c1ccf0f85c6247b34d322ad63d5184881ef2f10bf3c70dde218460405161140791815260200190565b60405180910390a250506109a1565b6001016112c8565b505050565b6001546001600160a01b031633146104ad5760405163118cdaa760e01b8152336004820152602401611201565b60025f540361147257604051633ee5aeb560e01b815260040160405180910390fd5b60025f55565b600180546001600160a01b038381166001600160a01b0319831681179093556040519116919082907f8be0079c531659141344cd1fd0a4f28419497f9722a3daafe3b4186f6b6457e0905f90a35050565b80356001600160a01b03811681146114df575f5ffd5b919050565b5f602082840312156114f4575f5ffd5b6114fd826114c9565b9392505050565b5f5f5f5f60608587031215611517575f5ffd5b611520856114c9565b935060208501359250604085013567ffffffffffffffff811115611542575f5ffd5b8501601f81018713611552575f5ffd5b803567ffffffffffffffff811115611568575f5ffd5b876020828401011115611579575f5ffd5b949793965060200194505050565b5f81518084528060208401602086015e5f602082860101526020601f19601f83011685010191505092915050565b5f602082016020835280845180835260408501915060408160051b8601019250602086015f5b8281101561164257603f19878603018452815160018060a01b0381511686526020810151602087015260408101516080604088015261161d6080880182611587565b60609283015115159790920196909652945060209384019391909101906001016115db565b50929695505050505050565b5f6020828403121561165e575f5ffd5b5035919050565b60018060a01b0385168152836020820152608060408201525f61168b6080830185611587565b9050821515606083015295945050505050565b5f5f604083850312156116af575f5ffd5b6116b8836114c9565b946020939093013593505050565b634e487b7160e01b5f52603260045260245ffd5b634e487b7160e01b5f52601160045260245ffd5b8082028115828204841417611705576117056116da565b92915050565b5f8261172557634e487b7160e01b5f52601260045260245ffd5b500490565b81810381811115611705576117056116da565b634e487b7160e01b5f52604160045260245ffd5b600181811c9082168061176557607f821691505b60208210810361178357634e487b7160e01b5f52602260045260245ffd5b50919050565b601f82111561141e57805f5260205f20601f840160051c810160208510156117ae5750805b601f840160051c820191505b818110156117cd575f81556001016117ba565b5050505050565b815167ffffffffffffffff8111156117ee576117ee61173d565b611802816117fc8454611751565b84611789565b6020601f821160018114611834575f831561181d5750848201515b5f19600385901b1c1916600184901b1784556117cd565b5f84815260208120601f198516915b828110156118635787850151825560209485019460019092019101611843565b508482101561188057868401515f19600387901b60f8161c191681555b50505050600190811b01905550565b80820180821115611705576117056116da565b5f600182016118b3576118b36116da565b506001019056fea26469706673582212204bb8d15cd78fc30854c5df34db0eb88b738ecba6eca229fa541298d30372b6f964736f6c634300081c0033",
  "linkReferences": {},
  "deployedLinkReferences": {},
  "immutableReferences": {},
  "inputSourceName": "project/contracts/VaultaraInheritance.sol",
  "buildInfoId": "solc-0_8_28-037363c64f9b5e6c1497b8db3c3e06e1c225cd06"
}